:020000020000FC
:0C0000000C942A000C9454000C94540042
:100050000C944C0003E00DBB05E00093690003E045
:1000600007B900E00093810002E000936F00C1E057
:10007000D1E0409A0FEF0DBF01E20EBF7894D0306F
:1000800011F00C943F0000E00DBB0E94710003E0F2
:10009000D1E00DBB0C943F00C13019F0C1E0409A93
:1000A0001895C0E040981895D0E049B143704030B1
:1000B000A1F0413051F0423061F0433009F0189521
:1000C00000E000938100409AFACF03E000938100A2
:1000D000F6CF04E000938100F2CF05E000938100A9
:1000E000EECF02E000939100C09A00E000939400EC
:0E00F0000093950008B301700130E1F7089508
:00000001FF
