:020000020000FC
:040000000C947200EA
:040064000C948B006D
:1000E4006FE067B960E068B907E60093C40000E018
:1000F4000093C50008E90093C10006E00093C20024
:100104000FEF0DBF01E20EBF78940E94B6000C946D
:1001140089000E94A700005311E00150003019F03B
:10012400110F0C948F0038B1212F2323203019F0A4
:1001340031270C949E00312B38B918951091C000CA
:100144001072E1F30093C60008951091C000107876
:10015400E1F30091C60008950591003021F00E945A
:10016400A0000C94AE000895F1E0E2E90E94AE0014
:10017400089505E000939100C09A00E00093940074
:100184000093950008B301700130E1F708952A2A1D
:100194002A20486F6C61204C61626F206465204D99
:1001A4006963726F202A2A2A0A0D45736372696291
:1001B4006120312C20322C2033206F2034207061B8
:1001C400726120636F6E74726F6C6172206C6F73F6
:0A01D400204C4544730A0D000000A2
:00000001FF
