:020000020000FC
:1000E4006FE067B960E068B907E60093C40000E018
:1000F4000093C50008E10093C10006E00093C2002C
:100104000FEF0DBF01E20EBF0E94B3000E94A400D6
:10011400005311E00150003019F0110F0C948C00C1
:1001240038B1212F2323203019F031270C949B0060
:10013400312B38B9EBCF1091C0001072E1F300936A
:10014400C60008951091C0001078E1F30091C60034
:1001540008950591003021F00E949D000C94AB009D
:100164000895F1E0ECE80E94AB00089505E00093E7
:100174009100C09A00E0009394000093950008B3A6
:1001840001700130E1F708952A2A2A20486F6C6132
:10019400204C61626F206465204D6963726F202A70
:1001A4002A2A0A0D4573637269626120312C203258
:1001B4002C2033206F2034207061726120636F6EB5
:1001C40074726F6C6172206C6F73204C4544730AB7
:0401D4000D0000001A
:00000001FF
